:1000000004308A00572C00000A108A100A11820757
:1000100028340C34013406340C10D432F230FA3463
:10002000F9342021EF392005E234F230EB34EE349C
:100030007A172E004B3084008313000803192E28F2
:100040000130F800F701F70B2328F80B22284A307B
:10005000F700F70B29282C28800B20280800520EC7
:10006000F039F7000F30060577048600000006140B
:100070003928061008000608F700060E0F39F800A8
:1000800008008316061086100611831286100F30A2
:1000900083160605F0388600831206150000061444
:1000A00000003B207808D200061000000614000073
:1000B0003B207808D10006100F3083160605860015
:1000C0008312520EF700F030F70577085104F8005C
:1000D0007808D100D11B47284F1C86104F18861472
:1000E0000000061100000610500ED1000F30D1059F
:1000F0005108D2002F2050080F39D100D2002F20F4
:1001000008000F30831606058600061086100611BB
:1001100083128610061106100F30CB001A20013012
:10012000B9003908033C031C9D280330D2002F205E
:100130000530CB001A20B90A91280230D2002F20B6
:100140000530CB001A20B9013908033C031CB12843
:1001500039080420BA00CF013A08D0004120B90A7A
:10016000A4288A110A126B2C4C0BB728BA284030ED
:10017000CD00BB28CD0101304B02CD074D088038A2
:10018000CE00CF014E08D000412008004A08073AAF
:100190000319D4280B3A0319D928063A0319E12880
:1001A000023A0319E728EC280130CB00CC00B42038
:1001B000F128CF010130D00041200230CB001A20BD
:1001C000F1280130CB000230CC00B420F128CF015F
:1001D0001030D0004120F1280130CF004A08D00073
:1001E000412008000B08B9008B13831603178C17E6
:1001F0000C140000000083120C087F390319392900
:100200000313BA0003170D080313BB0003170F08ED
:100210000313BC003A08CA00C6203B0803178D0030
:1002200003133C0803178F0083168C170C1400006F
:10023000000083120C0D0E0D7F39031939290313A9
:10024000BA0003170D080313BB0003170F080313AD
:10025000BC003A08CA00C6203B0803178D000313F0
:100260003C0803178F008D0A03198F0A0313F52822
:1002700003170313B91B8B178A110A12722C8318E8
:100280004429523084008313F701F801F901FA017F
:10029000D201D301D401D501510850044F044E04BA
:1002A000031982292030D6000310CA0DCB0DCC0DC6
:1002B000CD0DD20DD30DD40DD50D51085502031D12
:1002C0006B2950085402031D6B294F085302031D6C
:1002D0006B294E085202031C7C294E08D2024F089B
:1002E000031C4F0FD3025008031C500FD4025108B7
:1002F000031C510FD5020314F70DF80DF90DFA0D7B
:10030000D60B542952088000840A53088000840ABE
:1003100054088000840A550880000800BC01BB0115
:10032000BA01B901BD013D08133C031CFB290714A8
:10033000241024088316870083128710A410240831
:10034000831687008312C101C001BF01BE012414BE
:1003500024088316870083120718A729C2014208C0
:10036000173C031CD5298714A41024088316870082
:1003700003108312BE0DBF0DC00DC10D8710A41058
:100380002408831687008312241424088316870008
:100390008312071CD3290130BE070318BF0A0319B3
:1003A000C00A0319C10AC20AAF298714A41024087D
:1003B0008316870080308312C0068710A41024089B
:1003C0008316870083123E08F7003F08F8004008B4
:1003D000F9004108FA007708B90778080318780F80
:1003E000BA0779080318790FBB077A0803187A0F40
:1003F000BC07BD0A932983103C08CD003B08CC0004
:100400003A08CB003908CA00D101D001CF0114301D
:10041000CE003F217A08BC007908BB007808BA00FA
:100420007708B9003908F7003A08F8003B08F900E6
:100430003C08FA000800B630F700FA01F901F801AB
:1004400039083A043B043C04031D282AF701352AE5
:100450000310F81B342AB90DBA0DBB0DBC0DFA0DF3
:10046000F90DF80DF70B282AF813080039080319BD
:10047000FB2AC5003D080319FB2AC502031C452AB7
:100480007F30C5070318FB2A4B2A8130C502031CA5
:10049000FB2A0319FB2A4508F700F801F901FA01C4
:1004A000C4013A08C300C3173B08C2003C08C1009E
:1004B0001930C5004008C10203186E2A0130C2027B
:1004C00003186E2AC30203186E2AC40203186E2A88
:1004D000C40AC30AC20A4008C107A02A3F08C202D0
:1004E0000318892A0130C3020318892AC402031899
:1004F000892AC40AC30A3F08C2074008C107031C6F
:10050000A02AC20A031DA02AC30A031DA02AC40AE6
:10051000A02A3E088038C30203189F2A0130C40273
:1005200003189F2AC40A3E088038C3073F08C20741
:10053000031C7D2AC30A031D7D2AC40A7D2A7A145E
:10054000C50BA32AAE2A0310C10DC20DC30DC40DE5
:100550000310FA0DF90DF80DC60D5A2A461CB62ADD
:100560000310F80CF90CFA0CC60CB92AF70303199E
:10057000FB2AC61BE22A0310C10DC20DC30DC40D18
:100580004008C1020318CE2A0130C2020318CE2A45
:10059000C3020318CE2AC402031CF12A3F08C20278
:1005A0000318D92A0130C3020318D92AC402031C34
:1005B000F12A3E088038C3020318E22A0130C4023F
:1005C000031CF12AFA0A031DF12AF90A031DF12A74
:1005D000F80A031DF12AF70A0319FB2AF80CF90C93
:1005E000FA0C3A08C5003E08C506C51FF92AF817D7
:1005F000FF2AF813FF2AF701F801F901FA018A111D
:100600000A121B2D0408C2004108C4000319942BD0
:100610004008CD003F08CC003E08CB003D08CA0092
:10062000D101D0012030CF008230CE004A0803191A
:10063000862BD2004E080319862BD2070318272BCE
:100640007F30D202031C862B0319862B2B2B813083
:10065000D2070318862B5208F700F801F901FA01B6
:100660004B08D600D6174C08D5004D08D4001830DA
:10067000D200D301541C542B5108FA07031C462BFB
:10068000F90A031D462BF80A0319D3175008F90776
:10069000031C4D2BF80A0319D3174F08CC00CC17B5
:1006A0004C08F8070318D317D30DF80CF90CFA0C03
:1006B000D60CD50CD40C0310D20B392B0130F70714
:1006C0000318862BF81B6B2BD60DFA0DF90DF80DC0
:1006D000F7030319862BD61F7C2BFA0A031D7C2BEC
:1006E000F90A031D7C2BF80A031D7C2BF80CF90C6E
:1006F000FA0CF70A0319862B4B08D3004F08D306D0
:10070000D31F842BF8178A2BF8138A2BF701F801D3
:10071000F901FA017A08C0007908BF007808BE0024
:100720007708BD00C40B082B4008CD003F08CC0063
:100730003E08CB003D08CA004A08B63CCA00FA0190
:100740004B08CE00CB170310CB0CCC0CCD0CFA0C05
:10075000F90CF80CF70CCA0BA32BCE1FBA2BF70918
:10076000F809F909FA09F70A0319F80A0319F90A45
:100770000319FA0A7A08C0007908BF007808BE0099
:100780007708BD00C01FD12BC203C216BD09BE0928
:10079000BF09C009BD0A0319BE0A0319BF0A03191C
:1007A000C00A3B30C9009A30C800CA30C700C60131
:1007B0000A30C40041080319C20A83143D30840082
:1007C00083134008CD003F08CC003E08CB003D0815
:1007D000CA004908D1004808D0004708CF004608A1
:1007E000CE003F217808F708031D092C410A440276
:1007F0000319092C420803190B2C0F394402031961
:10080000032C03183B2CC21B3B2C421B0B2C20300F
:10081000372C2030C205C21E192CC2124108031DFC
:10082000C2037708C2002D30CA00C6204208F70074
:10083000C20141084402031D272C7708C2002E3054
:10084000CA00C6204208F7002030C2050030303010
:10085000C21E372CC2124108031DC2037708C20012
:100860002D30CA00C6204208F700C2013030F70719
:100870007708CA00C62083104908CD004808CC007C
:100880004708CB004608CA00D101D001CF010A3089
:10089000CE003F217A08C9007908C8007808C7004F
:1008A0007708C600C40BDD2B8A110A12332DA30171
:1008B000A2011030A1008430A000FF30A4008316F4
:1008C0001F149F141F159F1107309C0083131F30A6
:1008D0008305831281280C3003178D0000308F00B0
:1008E0000313F2281430B900FA30CB001A20B90BE8
:1008F000742CA801A701A601A501AC01AB01AA01B6
:10090000A901B001AF01AE01AD018E217A08AC00A2
:100910007908AB007808AA007708A9008E217A0828
:10092000A8007908A7007808A6007708A50028087D
:100930002C02031CDC2C031DAD2C27082B02031CEE
:10094000DC2C031DAD2C26082A02031CDC2C031D05
:10095000AD2C25082902031CDC2C25082902F700F0
:100960002A08F8002608031C260FF8022B08F900B5
:100970002708031C270FF9022C08FA002808031C7B
:10098000280FFA027A08BC007908BB007808BA0080
:100990007708B9001B227A08B4007908B3007808F8
:1009A000B2007708B1003408B0003308AF00320855
:1009B000AE003108AD000A2D29082502F7002608EF
:1009C000F8002A08031C2A0FF8022708F9002B0850
:1009D000031C2B0FF9022808FA002C08031C2C0F0B
:1009E000FA027A08BC007908BB007808BA007708D8
:1009F000B9001B227A08B8007908B7007808B60059
:100A00007708B5003808B0003708AF003608AE00E8
:100A10003508AD003008BC002F08BB002E08BA0016
:100A20002D08B9002308C0002208BF002108BE001D
:100A30002008BD00362A7A08BC007908BB00780877
:100A4000BA007708B9000C30CA00C620893084008B
:100A50003C08C0003B08BF003A08BE003908BD0092
:100A60000230C100022B0230B900FA30CB001A204C
:080A7000B90B352D8E2C63003B
:02400E00393F38
:00000001FF
;PIC16F877A
;CRC=9BDA  CREATED="05-Ara-20 19:46"
